:1000000014C038C037C036C035C034C033C032C069
:1000100031C030C02FC047C02DC02CC02BC02AC05B
:1000200029C028C027C00201200111241FBECFE52E
:10003000D4E0DEBFCDBF12E0A0E6B0E0EEE0FDE030
:1000400002C005900D92AC36B107D9F723E0ACE6BB
:10005000B2E001C01D92A833B207E1F710E0C4E19D
:10006000D0E003C02197FE0178D1C331D107D1F789
:1000700061D041C6C5CF1BB888E08AB986E880BD8B
:1000800085E089B910BC08955D9BFECF8CB90895B9
:10009000CF93DF93EC018991882311F0F5DFFBCF3B
:1000A000DF91CF9108951F920F920FB60F921124F6
:1000B0002F938F939F93EF93FF932FB7F894E09133
:1000C0000E03F0910F038CB1E459FD4F80838091B2
:1000D0000E0390910F03019690930F0380930E03EC
:1000E00080910E0390910F03803A910541F4109294
:1000F0000F0310920E0310920D0310920C032FBFEA
:10010000FF91EF919F918F912F910F900FBE0F90C4
:100110001F901895CF93DF93EC0186E891E0B8DF4C
:10012000CE01B6DF8AEC90E0B3DF8BEC90E0DF919C
:10013000CF910895A0DF8CE390E015D1D82FC92F7F
:1001400041E068EE73E088E890E0E4DF41E068EECB
:1001500073E086E991E0DEDF41E068EE73E08DE96F
:1001600091E0D8DF88E293E09F938F938EE293E053
:100170009F938F9386EA90E09F938F93CF93DF9323
:10018000E2D241E068EE73E08D2F9C2FC3DF8DB784
:100190009EB708960FB6F8949EBF0FBE8DBF14E1B0
:1001A00089EA91E075DF41E068EE73E08CEB91E065
:1001B000B1DF84E190E0D7D0EC0141E068EE73E07C
:1001C00088EC91E0A7DFFE01212F11922A95E9F733
:1001D0001B8A8FEE91E05CDF89EA91E059DF8FE1C5
:1001E00092E056DF41E068EE73E082E292E092DF57
:1001F0008FEF9EE9E4E281509040E040E1F700C0DB
:100200000000CECF60E372E08EE293E092D067E32D
:1002100072E088E293E08DD061E472E082E293E0E4
:1002200088D062E572E08CE193E083D06CEE71E0FF
:1002300086E193E07ED065E672E080E193E079C0EC
:1002400080E193E00FD086E193E00CD08CE193E065
:1002500009D082E293E006D088E293E003D08EE2F8
:1002600093E000C0FC018081918115C1CF93DF93A1
:10027000EC0188819981009709F00DD119821882CB
:100280001D821C821B821A82DF91CF9108950F93E9
:100290001F93CF93DF93EC018B016F5F7F4F8881BA
:1002A000998182D1009731F0998388831B830A83D7
:1002B00081E001C080E0DF91CF911F910F910895FF
:1002C000CF93DF93EC0188819981892B29F08A8172
:1002D0009B818617970758F4CE01D9DF882341F018
:1002E0008C819D81892B19F4E881F981108281E04C
:1002F000DF91CF910895EF92FF920F931F93CF93C9
:10030000DF93EC017B018A01BA01DADF811103C0BE
:10031000CE01ACDF06C01D830C83B70188819981B3
:100320000BD2CE01DF91CF911F910F91FF90EF90F3
:100330000895FC01118210821382128215821482A8
:100340006115710549F0FB0101900020E9F7319733
:10035000AF01461B570BCFCF0895EE0FFF1F05903F
:10036000F491E02D09940F931F93CF93DF93823084
:10037000910510F482E090E0E0913603F0913703AC
:1003800020E030E0A0E0B0E0309719F140815181E9
:100390000281138148175907C8F08417950769F43B
:1003A000109731F012960C93129713961C9327C056
:1003B000009336031093370322C02115310519F03D
:1003C0004217530718F49A01BD01EF01DF01F8014C
:1003D000DBCF21153105F9F0281B390B243031050D
:1003E00080F48A819B816115710521F0FB01938363
:1003F000828304C09093370380933603FE013296C4
:1004000044C0FE01E20FF31F819391932250310902
:10041000398328833AC02091340330913503232B4C
:1004200041F42091620030916300309335032093B2
:10043000340320916000309161002115310541F4B1
:100440002DB73EB74091640050916500241B350BD9
:10045000E0913403F0913503E217F307A0F42E1B6B
:100460003F0B2817390778F0AC014E5F5F4F241718
:10047000350748F04E0F5F1F509335034093340308
:100480008193919302C0E0E0F0E0CF01DF91CF9142
:100490001F910F910895CF93DF93009709F481C0C6
:1004A000FC01329713821282A0913603B091370378
:1004B000109781F420813181820F931F20913403A2
:1004C000309135032817390751F5F0933503E09340
:1004D000340367C0ED0120E030E0CE17DF0740F4C1
:1004E0004A815B819E0141155105F1F0EA01F5CF8A
:1004F000D383C28340815181840F951FC817D907C8
:1005000059F488819981840F951F02969183808385
:100510008A819B81938382832115310529F4F0938D
:100520003703E09336033DC0E901FB83EA83499139
:100530005991C40FD51FEC17FD0761F4808191819B
:10054000840F951F0296E9019983888382819381A4
:100550009B838A83E0E0F0E012968D919C91139743
:10056000009719F0FD01DC01F7CF8D919C91119757
:100570009D012E5F3F4F820F931F209134033091D6
:1005800035032817390769F4309729F41092370397
:100590001092360302C013821282B0933503A093E7
:1005A0003403DF91CF910895A0E0B0E0E9EDF2E0EF
:1005B0006FC3EC01009719F4CB01D5DEB0C0FC018C
:1005C000E60FF71F9C0122503109E217F30708F4E8
:1005D000A4C0D9010D911C91119706171707A8F017
:1005E0000530110508F497C0C801049786179707CE
:1005F00008F491C002501109061B170B01931193C7
:100600006D937C93CF0147DF86C05B01A01AB10ACE
:100610004C01800E911EA0913603B0913703612CDE
:10062000712CE12CF12C109709F446C08D919C910E
:100630001197A815B905B1F56C0142E0C40ED11CA3
:10064000CA14DB0478F14C018A189B08640142E06B
:10065000C40ED11C1296BC9012971396AC91B5E0C3
:10066000CB16D10440F0B282A38391828082D9015B
:100670006D937C9309C00E5F1F4F800F911FF9018E
:1006800091838083EB2DFA2FE114F10431F0D7012F
:100690001396FC93EE9312973EC0F0933703E093CA
:1006A000360339C06816790608F43C017D011296BC
:1006B0000D90BC91A02DB7CF80913403909135035C
:1006C00088169906E1F466167706C8F480916000F2
:1006D00090916100009741F48DB79EB740916400FE
:1006E00050916500841B950BE817F907B0F4F0935F
:1006F0003503E0933403F901718360830CC0CB01AF
:1007000032DE7C01009749F0A801BE010CD0CE0179
:10071000C2DEC70104C0CE0102C080E090E0CDB7C8
:10072000DEB7EEE0D1C2FB01DC0102C001900D9208
:1007300041505040D8F70895FB01DC0101900D9223
:100740000020E1F70895AEE0B0E0E8EAF3E0AAC2E5
:100750000D891E8986E08C831A8309838FEF9FE7BA
:100760009E838D83AE01475E5F4F6F89788DCE018A
:10077000019608D0EF81F885E00FF11F10822E96C8
:10078000E4E0ACC2ABE0B0E0E7ECF3E07DC26C01CA
:100790007B018A01FC0117821682838181FFBFC120
:1007A000CE0101963C01F6019381F70193FD8591FD
:1007B00093FF81917F01882309F4ADC1853239F41B
:1007C00093FD859193FF81917F01853221F4B601DC
:1007D00090E0C0D1E8CF912C212C312CFFE1F31512
:1007E000D8F08B3279F038F4803279F08332A1F48A
:1007F000232D20611DC08D3261F0803369F4232DDB
:10080000216016C0832D8260382EE32DE4603E2ED9
:100810002AC0F32DF8601DC037FC2DC020ED280F35
:100820002A3040F08E32B9F436FC75C1232D206495
:10083000322E19C036FE06C08AE0989E200D112483
:10084000922E11C0EAE02E9E200D1124222EF32DAF
:10085000F0623F2E08C08C3621F4832D8068382E3C
:1008600002C0883641F4F70193FD859193FF819191
:100870007F018111B3CF982F9F7D9554933028F439
:100880000C5F1F4F9FE399830DC0833631F0833790
:1008900071F0833509F055C020C0F801808189834B
:1008A0000E5F1F4F88248394912C530112C028019E
:1008B000F2E04F0E511CF801A080B18036FE03C05B
:1008C000692D70E002C06FEF7FEFC50138D14C0198
:1008D0008201F32DFF773F2E15C0280122E0420E42
:1008E000511CF801A080B18036FE03C0692D70E074
:1008F00002C06FEF7FEFC50117D14C01F32DF068F7
:100900003F2E820133FC19C0822D90E08816990693
:10091000A0F4B60180E290E01DD12A94F5CFF50154
:1009200037FC859137FE81915F01B60190E012D1CD
:1009300021102A9421E0821A91088114910479F7F8
:10094000E1C0843611F0893639F5F80137FE07C069
:1009500060817181828193810C5F1F4F08C060812B
:100960007181072E000C880B990B0E5F1F4FF32D22
:10097000FF763F2E97FF09C0909580957095619501
:100980007F4F8F4F9F4FF0683F2E2AE030E0A3014A
:100990001DD1882E861844C0853731F4232D2F7E33
:1009A000B22E2AE030E025C0932D997FB92E8F36E4
:1009B000C1F018F4883579F0AEC0803719F0883767
:1009C00021F0A9C0E92FE061BE2EB4FE0DC0FB2DC1
:1009D000F460BF2E09C034FE0AC0292F2660B22E53
:1009E00006C028E030E005C020E130E002C020E190
:1009F00032E0F801B7FE07C0608171818281938186
:100A00000C5F1F4F06C06081718180E090E00E5F37
:100A10001F4FA301DBD0882E8618FB2DFF773F2EBA
:100A200036FE0DC0232D2E7FA22E891458F434FEDD
:100A30000BC032FC09C0832D8E7EA82E05C0B82CB9
:100A4000A32C03C0B82C01C0B92CA4FE0FC0FE011A
:100A5000E80DF11D8081803321F49A2D997EA92E15
:100A600009C0A2FE06C0B394B39404C08A2D867850
:100A700009F0B394A3FC10C0A0FE06C0B21480F429
:100A8000280C922C9B180DC0B21458F4B60180E2C9
:100A900090E060D0B394F8CFB21418F42B1802C0D1
:100AA000982C212CA4FE0FC0B60180E390E052D018
:100AB000A2FE16C0A1FC03C088E790E002C088E552
:100AC00090E0B6010CC08A2D867851F0A1FE02C0DC
:100AD0008BE201C080E2A7FC8DE2B60190E03AD043
:100AE000891430F4B60180E390E034D09A94F8CFC2
:100AF0008A94F301E80DF11D8081B60190E02AD0BF
:100B00008110F6CF222009F44ECEB60180E290E0AB
:100B100021D02A94F7CFF6018681978102C08FEF0A
:100B20009FEF2B96E2E1CCC0FC0105906150704034
:100B30000110D8F7809590958E0F9F1F0895FC01A6
:100B40006150704001900110D8F7809590958E0FFC
:100B50009F1F08950F931F93CF93DF93FB01238172
:100B600021FD03C08FEF9FEF2CC022FF16C04681EE
:100B70005781248135814217530744F4A081B18104
:100B80009D012F5F3F4F318320838C9326813781D6
:100B90002F5F3F4F3783268314C08B01EC01FB018D
:100BA0000084F185E02D0995892BE1F6D801169690
:100BB0008D919C911797019617969C938E931697FB
:100BC000CE01DF91CF911F910F910895FA01AA27CD
:100BD000283051F1203181F1E8946F936E7F6E5F80
:100BE0007F4F8F4F9F4FAF4FB1E03ED0B4E03CD02E
:100BF000670F781F891F9A1FA11D680F791F8A1F11
:100C0000911DA11D6A0F711D811D911DA11D20D077
:100C100009F468943F912AE0269F11243019305D31
:100C20003193DEF6CF010895462F4770405D419322
:100C3000B3E00FD0C9F7F6CF462F4F70405D4A336F
:100C400018F0495D31FD4052419302D0A9F7EACF37
:100C5000B4E0A6959795879577956795BA95C9F766
:100C600000976105710508959B01AC010A2E069459
:100C70005795479537952795BA95C9F7620F731F12
:100C8000841F951FA01D08952F923F924F925F924F
:100C90006F927F928F929F92AF92BF92CF92DF928C
:100CA000EF92FF920F931F93CF93DF93CDB7DEB7F1
:100CB000CA1BDB0B0FB6F894DEBF0FBECDBF099485
:100CC0002A88398848885F846E847D848C849B84DC
:100CD000AA84B984C884DF80EE80FD800C811B81EA
:100CE000AA81B981CE0FD11D0FB6F894DEBF0FBE19
:100CF000CDBFED01089510E0C4E1D0E003C0FE01D6
:0E0D00002CDB2196C531D107D1F7F894FFCF37
:100D0E000000380380000D0A4F4B0D0A0041542B92
:100D1E004349504D4F44453D25640041542B4349B2
:100D2E00504D55583D25640041540041542B4349C4
:100D3E0050434C4F53453D310041542B43574D4F7B
:100D4E0044453D25640041542B43574A41503D22B2
:100D5E002573222C22257322000D0A57494649205D
:100D6E00434F4E4E45435445440D0A002B43574ABC
:100D7E0041503A31002B43574A41503A32002B43EF
:100D8E00574A41503A33002B43574A41503A3400A8
:100D9E0041542B43495053544154555300535441DD
:100DAE005455533A32005354415455533A33005329
:100DBE0054415455533A34005354415455533A35D3
:100DCE00004349504D55583A300041542B43495039
:100DDE004D55583F0041542B4349505354415254A2
:100DEE003D22544350222C222573222C2573004180
:100DFE00542B43495053544152543D222564222CC6
:100E0E0022544350222C222573222C257300434F4B
:100E1E004E4E4543540D0A0041542B434950534501
:100E2E004E443D256400415420436F6D6D616E64E8
:100E3E00203D3D3E200041542B5253540041542B33
:100E4E0043574D4F44453D310056616C75652074D6
:100E5E006F2062652073656E743A200041542B43F7
:100E6E0049504D55583D300041542B434950535431
:100E7E004152543D22544350222C223138342E31CB
:100E8E0030362E3135332E313439222C3830002085
:100E9E00474554202F7570646174653F6170695FBA
:100EAE006B65793D37543242473555414B3451339A
:100EBE0041594653266669656C64313D35350031BE
:100ECE00320041542B434950434C4F53453D300063
:100EDE00642D6C696E6B006E616E64616E313131C2
:100EEE000037543242473555414B34513341594600
:100EFE0053006170692E7468696E67737065616BFB
:0C0F0E002E636F6D006865616C746800F4
:101E000001C0B2C011248FE594E09EBF8DBF84B79E
:101E1000882349F0982F9A70923029F081FF02C0F0
:101E200097EF94BFCFD085E08EBD82E08BB988E17B
:101E30008AB986E880BD89E189B98EE0B0D0BD9AC3
:101E400084E044E25DEF34E020E25DBD4CBD38BF8C
:101E500008B602FEFDCF98B3922798BBA895815093
:101E6000A1F7C0E0D0E094D0813471F491D0182F64
:101E70009AD0123811F482E005C0113811F486E0CE
:101E800001C083E081D06DC0823411F484E103C0CD
:101E9000853419F485E08FD064C0853541F478D05D
:101EA000C82F76D0D0E0D82BCC0FDD1F59C0863597
:101EB00021F484E080D080E0E5CF8436A1F568D0BD
:101EC00067D0182F65D0D82E012F90E6E92EF12C7F
:101ED0005FD0F70181937F010150D1F764D0F5E421
:101EE000DF1201C0FFCF40E050E063E0CE013CD004
:101EF0006E0180E6E82EF12CF7014081818150E0EF
:101F0000582B61E0C60130D0F2E0CF0ED11C125048
:101F100082E0E80EF11C1111EFCF40E050E065E0E7
:101F2000CE0122D01EC0843771F432D031D0F82EC9
:101F30002FD039D08E01F80185918F0125D0FA94E8
:101F4000F110F9CF0EC0853739F42DD08EE11CD0B9
:101F500083E91AD087E096CF813511F488E01FD04D
:101F600022D080E111D07FCFFC010A0167BFE89544
:101F7000112407B600FCFDCF667029F0452B19F43B
:101F800081E187BFE89508955D9BFECF8CB90895E8
:101F90005F9BFECF5C9901C0A8958CB1089598E134
:101FA00091BD81BD0895F4DF803219F088E0F7DF3C
:101FB000FFCF84E1E9CFCF93C82FEADFC150E9F723
:101FC000CF91F1CF282E80E0EADFE0E0FF270994EF
:021FFE000206D9
:0400000300001E00DB
:00000001FF
